{
  "contractName": "NFTMarketplace",
  "abi": [
    {
      "inputs": [
        {
          "internalType": "address",
          "name": "_tokenToPay",
          "type": "address"
        }
      ],
      "stateMutability": "nonpayable",
      "type": "constructor"
    },
    {
      "anonymous": false,
      "inputs": [
        {
          "indexed": true,
          "internalType": "uint256",
          "name": "tokenId",
          "type": "uint256"
        },
        {
          "indexed": true,
          "internalType": "address",
          "name": "buyer",
          "type": "address"
        },
        {
          "indexed": true,
          "internalType": "address",
          "name": "seller",
          "type": "address"
        },
        {
          "indexed": false,
          "internalType": "address",
          "name": "NFTAddress",
          "type": "address"
        },
        {
          "indexed": false,
          "internalType": "uint256",
          "name": "price",
          "type": "uint256"
        }
      ],
      "name": "ItemBought",
      "type": "event"
    },
    {
      "anonymous": false,
      "inputs": [
        {
          "indexed": true,
          "internalType": "uint256",
          "name": "tokenId",
          "type": "uint256"
        },
        {
          "indexed": true,
          "internalType": "address",
          "name": "seller",
          "type": "address"
        },
        {
          "indexed": false,
          "internalType": "address",
          "name": "NFTAddress",
          "type": "address"
        }
      ],
      "name": "ItemCancelled",
      "type": "event"
    },
    {
      "anonymous": false,
      "inputs": [
        {
          "indexed": true,
          "internalType": "uint256",
          "name": "tokenId",
          "type": "uint256"
        },
        {
          "indexed": true,
          "internalType": "address",
          "name": "seller",
          "type": "address"
        },
        {
          "indexed": false,
          "internalType": "address",
          "name": "NFTAddress",
          "type": "address"
        },
        {
          "indexed": false,
          "internalType": "uint256",
          "name": "price",
          "type": "uint256"
        }
      ],
      "name": "ItemListed",
      "type": "event"
    },
    {
      "anonymous": false,
      "inputs": [
        {
          "indexed": true,
          "internalType": "address",
          "name": "previousOwner",
          "type": "address"
        },
        {
          "indexed": true,
          "internalType": "address",
          "name": "newOwner",
          "type": "address"
        }
      ],
      "name": "OwnershipTransferred",
      "type": "event"
    },
    {
      "inputs": [],
      "name": "owner",
      "outputs": [
        {
          "internalType": "address",
          "name": "",
          "type": "address"
        }
      ],
      "stateMutability": "view",
      "type": "function"
    },
    {
      "inputs": [],
      "name": "renounceOwnership",
      "outputs": [],
      "stateMutability": "nonpayable",
      "type": "function"
    },
    {
      "inputs": [
        {
          "internalType": "address",
          "name": "newOwner",
          "type": "address"
        }
      ],
      "name": "transferOwnership",
      "outputs": [],
      "stateMutability": "nonpayable",
      "type": "function"
    },
    {
      "inputs": [
        {
          "internalType": "address",
          "name": "NFTAddress",
          "type": "address"
        },
        {
          "internalType": "uint256",
          "name": "tokenId",
          "type": "uint256"
        },
        {
          "internalType": "uint256",
          "name": "price",
          "type": "uint256"
        }
      ],
      "name": "listItem",
      "outputs": [],
      "stateMutability": "nonpayable",
      "type": "function"
    },
    {
      "inputs": [
        {
          "internalType": "address",
          "name": "NFTAddress",
          "type": "address"
        },
        {
          "internalType": "uint256",
          "name": "tokenId",
          "type": "uint256"
        }
      ],
      "name": "cancelListing",
      "outputs": [],
      "stateMutability": "nonpayable",
      "type": "function"
    },
    {
      "inputs": [
        {
          "internalType": "address",
          "name": "NFTAddress",
          "type": "address"
        },
        {
          "internalType": "uint256",
          "name": "tokenId",
          "type": "uint256"
        }
      ],
      "name": "buyItem",
      "outputs": [],
      "stateMutability": "nonpayable",
      "type": "function"
    },
    {
      "inputs": [
        {
          "internalType": "address",
          "name": "NFTAddress",
          "type": "address"
        },
        {
          "internalType": "uint256",
          "name": "tokenId",
          "type": "uint256"
        },
        {
          "internalType": "uint256",
          "name": "newPrice",
          "type": "uint256"
        }
      ],
      "name": "updateListing",
      "outputs": [],
      "stateMutability": "nonpayable",
      "type": "function"
    },
    {
      "inputs": [
        {
          "internalType": "address",
          "name": "NFTAddress",
          "type": "address"
        },
        {
          "internalType": "uint256",
          "name": "tokenId",
          "type": "uint256"
        }
      ],
      "name": "getListing",
      "outputs": [
        {
          "components": [
            {
              "internalType": "uint256",
              "name": "price",
              "type": "uint256"
            },
            {
              "internalType": "address",
              "name": "seller",
              "type": "address"
            }
          ],
          "internalType": "struct NFTMarketplace.Listing",
          "name": "",
          "type": "tuple"
        }
      ],
      "stateMutability": "view",
      "type": "function"
    }
  ],
  "bytecode": "0x608060405234801561001057600080fd5b5060405161140f38038061140f83398101604081905261002f916100b4565b600160005561003d33610062565b600280546001600160a01b0319166001600160a01b03929092169190911790556100e4565b600180546001600160a01b038381166001600160a01b0319831681179093556040519116919082907f8be0079c531659141344cd1fd0a4f28419497f9722a3daafe3b4186f6b6457e090600090a35050565b6000602082840312156100c657600080fd5b81516001600160a01b03811681146100dd57600080fd5b9392505050565b61131c806100f36000396000f3fe608060405234801561001057600080fd5b50600436106100885760003560e01c80639f37092a1161005b5780639f37092a1461011b578063b2ddee061461012e578063f2fde38b14610141578063f772adf11461015457600080fd5b8063715018a61461008d57806388700d1c1461009757806389bfd38f146100e05780638da5cb5b146100f3575b600080fd5b610095610167565b005b6100aa6100a53660046111ba565b6101f9565b604080518251815260209283015173ffffffffffffffffffffffffffffffffffffffff1692810192909252015b60405180910390f35b6100956100ee3660046111e6565b610255565b60015460405173ffffffffffffffffffffffffffffffffffffffff90911681526020016100d7565b6100956101293660046111ba565b610664565b61009561013c3660046111ba565b610b17565b61009561014f36600461121b565b610d61565b6100956101623660046111e6565b610e91565b60015473ffffffffffffffffffffffffffffffffffffffff1633146101ed576040517f08c379a000000000000000000000000000000000000000000000000000000000815260206004820181905260248201527f4f776e61626c653a2063616c6c6572206973206e6f7420746865206f776e657260448201526064015b60405180910390fd5b6101f76000611121565b565b6040805180820182526000808252602091820181905273ffffffffffffffffffffffffffffffffffffffff8581168252600383528382208583528352908390208351808501909452805484526001015416908201525b92915050565b73ffffffffffffffffffffffffffffffffffffffff83166000908152600360209081526040808320858452909152902054839083903390156102f3576040517f08c379a000000000000000000000000000000000000000000000000000000000815260206004820152601660248201527f4d61726b65743a20416c7265616479206c69737465640000000000000000000060448201526064016101e4565b6040517f6352211e00000000000000000000000000000000000000000000000000000000815260048101869052869086903390819073ffffffffffffffffffffffffffffffffffffffff851690636352211e90602401602060405180830381865afa158015610366573d6000803e3d6000fd5b505050506040513d601f19601f8201168201806040525081019061038a919061123f565b73ffffffffffffffffffffffffffffffffffffffff1614610407576040517f08c379a000000000000000000000000000000000000000000000000000000000815260206004820152601560248201527f4d61726b65743a204e6f7420746865206f776e6572000000000000000000000060448201526064016101e4565b60008711610471576040517f08c379a000000000000000000000000000000000000000000000000000000000815260206004820152601860248201527f5072696365206d7573742062652061626f7665207a65726f000000000000000060448201526064016101e4565b6040517f081812fc00000000000000000000000000000000000000000000000000000000815260048101899052309073ffffffffffffffffffffffffffffffffffffffff8b169063081812fc90602401602060405180830381865afa1580156104de573d6000803e3d6000fd5b505050506040513d601f19601f82011682018060405250810190610502919061123f565b73ffffffffffffffffffffffffffffffffffffffff161461057f576040517f08c379a000000000000000000000000000000000000000000000000000000000815260206004820152601c60248201527f4e6f7420617070726f76656420666f72206d61726b6574706c6163650000000060448201526064016101e4565b60408051808201825288815233602080830182815273ffffffffffffffffffffffffffffffffffffffff8e81166000908152600384528681208f825290935291859020935184555160019093018054939091167fffffffffffffffffffffffff000000000000000000000000000000000000000090931692909217909155905189907facaa5c216c6ad9851cb7b94d17731f463389bc61f8fd846c2de5a758ed92396690610651908d908c9073ffffffffffffffffffffffffffffffffffffffff929092168252602082015260400190565b60405180910390a3505050505050505050565b6002600054036106d0576040517f08c379a000000000000000000000000000000000000000000000000000000000815260206004820152601f60248201527f5265656e7472616e637947756172643a207265656e7472616e742063616c6c0060448201526064016101e4565b6002600090815573ffffffffffffffffffffffffffffffffffffffff831681526003602090815260408083208484529091529020548290829061076f576040517f08c379a000000000000000000000000000000000000000000000000000000000815260206004820152601260248201527f4d61726b65743a204e6f74206c6973746564000000000000000000000000000060448201526064016101e4565b73ffffffffffffffffffffffffffffffffffffffff8481166000818152600360209081526040808320888452825280832081518083018352815480825260019092015490961692860192909252517f2a55205a00000000000000000000000000000000000000000000000000000000815260048101889052602481019190915290918291632a55205a906044016040805180830381865afa158015610818573d6000803e3d6000fd5b505050506040513d601f19601f8201168201806040525081019061083c919061125c565b915091506000818460000151610852919061128a565b60025460208601516040517f23b872dd00000000000000000000000000000000000000000000000000000000815233600482015273ffffffffffffffffffffffffffffffffffffffff91821660248201526044810184905292935016906323b872dd906064016020604051808303816000875af11580156108d7573d6000803e3d6000fd5b505050506040513d601f19601f820116820180604052508101906108fb91906112c4565b506002546040517f23b872dd00000000000000000000000000000000000000000000000000000000815233600482015273ffffffffffffffffffffffffffffffffffffffff858116602483015260448201859052909116906323b872dd906064016020604051808303816000875af115801561097b573d6000803e3d6000fd5b505050506040513d601f19601f8201168201806040525081019061099f91906112c4565b5073ffffffffffffffffffffffffffffffffffffffff88811660008181526003602090815260408083208c84528252808320928355600190920180547fffffffffffffffffffffffff000000000000000000000000000000000000000016905587015190517f42842e0e0000000000000000000000000000000000000000000000000000000081529216600483015233602483015260448201899052906342842e0e90606401600060405180830381600087803b158015610a5f57600080fd5b505af1158015610a73573d6000803e3d6000fd5b50505050836020015173ffffffffffffffffffffffffffffffffffffffff163373ffffffffffffffffffffffffffffffffffffffff16887f4e3f9e8b693e9974db110dc1d49a290392bd65c559ee233d196e9f41ec6f3c1e8b8860000151604051610b0092919073ffffffffffffffffffffffffffffffffffffffff929092168252602082015260400190565b60405180910390a450506001600055505050505050565b6040517f6352211e00000000000000000000000000000000000000000000000000000000815260048101829052829082903390819073ffffffffffffffffffffffffffffffffffffffff851690636352211e90602401602060405180830381865afa158015610b8a573d6000803e3d6000fd5b505050506040513d601f19601f82011682018060405250810190610bae919061123f565b73ffffffffffffffffffffffffffffffffffffffff1614610c2b576040517f08c379a000000000000000000000000000000000000000000000000000000000815260206004820152601560248201527f4d61726b65743a204e6f7420746865206f776e6572000000000000000000000060448201526064016101e4565b73ffffffffffffffffffffffffffffffffffffffff8516600090815260036020908152604080832087845290915290205485908590610cc6576040517f08c379a000000000000000000000000000000000000000000000000000000000815260206004820152601260248201527f4d61726b65743a204e6f74206c6973746564000000000000000000000000000060448201526064016101e4565b73ffffffffffffffffffffffffffffffffffffffff871660008181526003602090815260408083208a84528252808320928355600190920180547fffffffffffffffffffffffff00000000000000000000000000000000000000001690559051918252339188917f7a2ca047d3db99788d5135cd3999ba6b08465a473f156211458b535d4f292d8b910160405180910390a350505050505050565b60015473ffffffffffffffffffffffffffffffffffffffff163314610de2576040517f08c379a000000000000000000000000000000000000000000000000000000000815260206004820181905260248201527f4f776e61626c653a2063616c6c6572206973206e6f7420746865206f776e657260448201526064016101e4565b73ffffffffffffffffffffffffffffffffffffffff8116610e85576040517f08c379a000000000000000000000000000000000000000000000000000000000815260206004820152602660248201527f4f776e61626c653a206e6577206f776e657220697320746865207a65726f206160448201527f646472657373000000000000000000000000000000000000000000000000000060648201526084016101e4565b610e8e81611121565b50565b73ffffffffffffffffffffffffffffffffffffffff8316600090815260036020908152604080832085845290915290205483908390610f2c576040517f08c379a000000000000000000000000000000000000000000000000000000000815260206004820152601260248201527f4d61726b65743a204e6f74206c6973746564000000000000000000000000000060448201526064016101e4565b6040517f6352211e00000000000000000000000000000000000000000000000000000000815260048101859052859085903390819073ffffffffffffffffffffffffffffffffffffffff851690636352211e90602401602060405180830381865afa158015610f9f573d6000803e3d6000fd5b505050506040513d601f19601f82011682018060405250810190610fc3919061123f565b73ffffffffffffffffffffffffffffffffffffffff1614611040576040517f08c379a000000000000000000000000000000000000000000000000000000000815260206004820152601560248201527f4d61726b65743a204e6f7420746865206f776e6572000000000000000000000060448201526064016101e4565b600086116110aa576040517f08c379a000000000000000000000000000000000000000000000000000000000815260206004820152601860248201527f5072696365206d7573742062652061626f7665207a65726f000000000000000060448201526064016101e4565b73ffffffffffffffffffffffffffffffffffffffff881660008181526003602090815260408083208b845282529182902089905581519283528201889052339189917facaa5c216c6ad9851cb7b94d17731f463389bc61f8fd846c2de5a758ed923966910160405180910390a35050505050505050565b6001805473ffffffffffffffffffffffffffffffffffffffff8381167fffffffffffffffffffffffff0000000000000000000000000000000000000000831681179093556040519116919082907f8be0079c531659141344cd1fd0a4f28419497f9722a3daafe3b4186f6b6457e090600090a35050565b73ffffffffffffffffffffffffffffffffffffffff81168114610e8e57600080fd5b600080604083850312156111cd57600080fd5b82356111d881611198565b946020939093013593505050565b6000806000606084860312156111fb57600080fd5b833561120681611198565b95602085013595506040909401359392505050565b60006020828403121561122d57600080fd5b813561123881611198565b9392505050565b60006020828403121561125157600080fd5b815161123881611198565b6000806040838503121561126f57600080fd5b825161127a81611198565b6020939093015192949293505050565b8181038181111561024f577f4e487b7100000000000000000000000000000000000000000000000000000000600052601160045260246000fd5b6000602082840312156112d657600080fd5b8151801515811461123857600080fdfea26469706673582212207ffb2856c4c0869d6c2ea6477086a0329af8d6f5490849de16ae125a18050aef64736f6c63430008110033",
  "immutableReferences": {},
  "source": "// SPDX-License-Identifier: MIT\n\npragma solidity ^0.8.0;\n\nimport \"./lib/Ownable.sol\";\nimport \"./lib/IERC20.sol\";\nimport \"./lib/IERC721.sol\";\nimport \"./lib/IERC2981.sol\";\nimport \"./lib/ReentrancyGuard.sol\";\n\ncontract NFTMarketplace is ReentrancyGuard, Ownable {\n    // Structs\n    struct Listing {\n        uint256 price;\n        address seller;\n    }\n\n    // Events\n    event ItemListed(\n        uint256 indexed tokenId,\n        address indexed seller,\n        address NFTAddress,\n        uint256 price\n    );\n\n    event ItemCancelled(\n        uint256 indexed tokenId,\n        address indexed seller,\n        address NFTAddress\n    );\n\n    event ItemBought(\n        uint256 indexed tokenId,\n        address indexed buyer,\n        address indexed seller,\n        address NFTAddress,\n        uint256 price \n    );\n\n    // Modifiers\n    modifier notListed(\n        address NFTAddress,\n        uint256 tokenId,\n        address owner\n    ) {\n        require(listings[NFTAddress][tokenId].price == 0, \"Market: Already listed\");\n        _;\n    }\n\n    modifier isNFTOwner(\n        address NFTAddress,\n        uint256 tokenId,\n        address spender\n    ) {\n        require(IERC721(NFTAddress).ownerOf(tokenId) == spender, \"Market: Not the owner\");\n        _;\n    }\n\n    modifier isListed(address NFTAddress, uint256 tokenId) {\n        require(listings[NFTAddress][tokenId].price > 0, \"Market: Not listed\");\n        _;\n    }\n\n    // An ERC-20 token that is accepted as payment in the marketplace (e.g. WAVAX)\n    address tokenToPay;\n\n    mapping(address => mapping(uint256 => Listing)) private listings;\n\n    constructor(address _tokenToPay) {\n        tokenToPay = _tokenToPay;\n    }\n\n    function listItem(\n        address NFTAddress,\n        uint256 tokenId,\n        uint256 price\n    )\n        external\n        notListed(NFTAddress, tokenId, msg.sender)\n        isNFTOwner(NFTAddress, tokenId, msg.sender)\n    {\n        require(price > 0, \"Price must be above zero\");\n        require(\n            IERC721(NFTAddress).getApproved(tokenId) == address(this),\n            \"Not approved for marketplace\"\n        );\n        listings[NFTAddress][tokenId] = Listing(price, msg.sender);\n        emit ItemListed(tokenId, msg.sender, NFTAddress, price);\n    }\n\n    function cancelListing(address NFTAddress, uint256 tokenId)\n        external\n        isNFTOwner(NFTAddress, tokenId, msg.sender)\n        isListed(NFTAddress, tokenId)\n    {\n        delete (listings[NFTAddress][tokenId]);\n        emit ItemCancelled(tokenId, msg.sender, NFTAddress);\n    }\n\n    // NFT Reentrant attack: attacker may call this more than once using NFT->onReceived callback\n    function buyItem(address NFTAddress, uint256 tokenId)\n        external\n        nonReentrant()\n        isListed(NFTAddress, tokenId)\n    {\n        Listing memory listedItem = listings[NFTAddress][tokenId];\n\n        (address receiver, uint256 royaltyAmount) = IERC2981(NFTAddress).royaltyInfo(tokenId, listedItem.price);\n        uint256 remaining = listedItem.price - royaltyAmount;\n\n\n        IERC20(tokenToPay).transferFrom(\n            msg.sender,\n            listedItem.seller,\n            remaining\n        );\n        IERC20(tokenToPay).transferFrom(\n            msg.sender,\n            receiver,\n            royaltyAmount\n        );\n        delete (listings[NFTAddress][tokenId]);\n        IERC721(NFTAddress).safeTransferFrom(\n            listedItem.seller,\n            msg.sender,\n            tokenId\n        );\n        emit ItemBought(tokenId, msg.sender, listedItem.seller, NFTAddress, listedItem.price);\n    }\n\n    function updateListing(\n        address NFTAddress,\n        uint256 tokenId,\n        uint256 newPrice\n    )\n        external\n        isListed(NFTAddress, tokenId)\n        isNFTOwner(NFTAddress, tokenId, msg.sender)\n    {\n        require(newPrice > 0, \"Price must be above zero\");\n        listings[NFTAddress][tokenId].price = newPrice;\n        emit ItemListed(tokenId, msg.sender, NFTAddress, newPrice);\n    }\n\n    function getListing(address NFTAddress, uint256 tokenId)\n        external\n        view\n        returns (Listing memory)\n    {\n        return listings[NFTAddress][tokenId];\n    }\n}\n",
  "sourcePath": "/home/batman/Documents/WorkSpaces/Test/PortalFantasy/smart-contracts-interview-exercises/contracts/NFTMarketplace.sol",
  "compiler": {
    "name": "solc",
    "version": "0.8.17+commit.8df45f5f.Emscripten.clang"
  },
  "schemaVersion": "3.4.7",
  "updatedAt": "2022-10-31T20:01:56.501Z",
  "devdoc": {
    "kind": "dev",
    "methods": {
      "owner()": {
        "details": "Returns the address of the current owner."
      },
      "renounceOwnership()": {
        "details": "Leaves the contract without owner. It will not be possible to call `onlyOwner` functions anymore. Can only be called by the current owner. NOTE: Renouncing ownership will leave the contract without an owner, thereby removing any functionality that is only available to the owner."
      },
      "transferOwnership(address)": {
        "details": "Transfers ownership of the contract to a new account (`newOwner`). Can only be called by the current owner."
      }
    },
    "version": 1
  },
  "userdoc": {
    "kind": "user",
    "methods": {},
    "version": 1
  }
}